:100000000C9434000C9451000C9451000C94510049
:100010000C9451000C9451000C9451000C9451001C
:100020000C9451000C9451000C9451000C9451000C
:100030000C9451000C9451000C9451000C945100FC
:100040000C9451000C9451000C9451000C945100EC
:100050000C9451000C9451000C9451000C945100DC
:100060000C9451000C94510011241FBECFEFD8E026
:10007000DEBFCDBF11E0A0E0B1E0ECECF3E202C0E6
:1000800005900D92A038B107D9F721E0A0E8B1E0C2
:1000900001C01D92AC38B207E1F70E94BB0B0C9473
:1000A000E4110C9400000F931F93CF93DF93CDB70F
:1000B000DEB7CC54D1090FB6F894DEBF0FBECDBF6A
:1000C0009E01275B3F4FF901608371838283938395
:1000D00080E090E0A0E0B1E08B839C83AD83BE83A1
:1000E0008AE290E028E0FC0120838BE290E0FC01B2
:1000F00010821A8219822CC1CE01875B9F4FFC01AE
:1001000020813181428153818B819C81AD81BE816F
:1001100082239323A423B52321E0892B8A2B8B2BC5
:1001200009F420E02F838B819C81AD81BE81B6953F
:10013000A795979587958B839C83AD83BE838BE230
:1001400090E0FC0110828BE290E028E0FC0120832B
:100150008BE290E02F81220F220F220FFC012083DF
:1001600080E090E0A8ECB2E488879987AA87BB87F3
:100170002BEA3AEA4AEA50E4688579858A859B85C4
:100180000E947C0EDC01CB018C879D87AE87BF87E8
:1001900020E030E040E850E4688579858A859B85D9
:1001A0000E947C0EDC01CB01888B998BAA8BBB8BC8
:1001B00020E030E040E85FE36C857D858E859F859B
:1001C0000E945C0D88231CF481E08C8BB6C020E07B
:1001D0003FEF4FE757E4688979898A899B890E94B4
:1001E000770E18160CF07FC020E030E04AE754E4A8
:1001F000688579858A859B850E94610DDC01CB012C
:100200008D8B9E8BAF8BB88F20E030E04AE755E4B2
:100210006D897E898F89988D0E947C0EDC01CB01CF
:10022000898F9A8FAB8FBC8F20E030E040E85FE38E
:10023000698D7A8D8B8D9C8D0E945C0D88232CF4AA
:1002400081E090E09E8F8D8F41C020E03FEF4FE72F
:1002500057E4698D7A8D8B8D9C8D0E94770E1816D0
:100260005CF520E030E040E251E46D897E898F89C1
:10027000988D0E947C0EDC01CB01BC01CD010E9457
:10028000D30DDC01CB019E8F8D8F0FC080E991E0F3
:1002900098A38F8F8F8D98A10197F1F798A38F8FD7
:1002A0008D8D9E8D01979E8F8D8F8D8D9E8D892B2F
:1002B00069F788A58C8B41C0698D7A8D8B8D9C8D5B
:1002C0000E94D30DDC01CB019E8F8D8F8D8D9E8D75
:1002D0009AA389A389A19AA10197F1F79AA389A367
:1002E00088A58C8B2AC020E030E04FE753E46C8572
:1002F0007D858E859F850E94770E1816ACF46889DF
:1003000079898A899B890E94D30DDC01CB019CA34A
:100310008BA38BA19CA19EA38DA38DA19EA10197D0
:10032000F1F79EA38DA30FC06C857D858E859F857B
:100330000E94D30DDC01CB018C8B8C898FA38FA104
:100340008A95F1F78FA389819A8101969A8389838F
:1003500089819A8149970CF4CFCE8BE290E0FC0121
:10036000108280E090E0A6E1B4E489A79AA7ABA749
:10037000BCA72BEA3AEA4AEA50E469A57AA58BA51C
:100380009CA50E947C0EDC01CB018DA79EA7AFA788
:10039000B8AB20E030E040E850E469A57AA58BA531
:1003A0009CA50E947C0EDC01CB0189AB9AABABAB68
:1003B000BCAB20E030E040E85FE36DA57EA58FA5F3
:1003C00098A90E945C0D88231CF481E08DABDEC0EF
:1003D00020E03FEF4FE757E469A97AA98BA99CA9D0
:1003E0000E94770E18160CF093C020E030E04AE728
:1003F00054E469A57AA58BA59CA50E94610DDC013A
:10040000CB018EAB9FABA8AFB9AF20E030E04AE79D
:1004100055E46EA97FA988AD99AD0E947C0EDC01E0
:10042000CB018AAF9BAFACAFBDAF20E030E040E87E
:100430005FE36AAD7BAD8CAD9DAD0E945C0D882302
:100440002CF481E090E09FAF8EAF4BC020E03FEFF7
:100450004FE757E46AAD7BAD8CAD9DAD0E94770E42
:100460001816ACF520E030E040E251E46EA97FA917
:1004700088AD99AD0E947C0EDC01CB01BC01CD01A1
:100480000E94D30DDC01CB019FAF8EAF1BC0CE010C
:10049000805C9F4F20E931E0FC0131832083CE0155
:1004A000805C9F4FFC01808191810197F1F79E0153
:1004B000205C3F4FF901918380838EAD9FAD019702
:1004C0009FAF8EAF8EAD9FAD892B09F75FC06AAD30
:1004D0007BAD8CAD9DAD0E94D30DDC01CB019FAFF8
:1004E0008EAFCE018E5B9F4F2EAD3FADFC013183B1
:1004F0002083CE018E5B9F4FFC018081918101970B
:10050000F1F79E012E5B3F4FF901918380833EC03E
:1005100020E030E04FE753E46DA57EA58FA598A9B4
:100520000E94770E18164CF58E010C5B1F4F69A9BF
:100530007AA98BA99CA90E94D30DDC01CB01F801FB
:1005400091838083CE018A5B9F4F9E012C5B3F4F3E
:10055000F90120813181FC0131832083CE018A5B46
:100560009F4FFC01808191810197F1F79E012A5BE9
:100570003F4FF901918380831CC06DA57EA58FA597
:1005800098A90E94D30DDC01CB018DABCE01885B15
:100590009F4F2DA9FC012083CE01885B9F4FFC015A
:1005A0008081282F2A95F1F7CE01885B9F4FFC01AF
:1005B00020838CE191E00E94FF0EC45BDF4F0FB6F9
:1005C000F894DEBF0FBECDBFDF91CF911F910F9189
:1005D00008950F931F93CF93DF93CDB7DEB7C05B22
:1005E000D1090FB6F894DEBF0FBECDBF8BE290E00D
:1005F00024E0FC0120838AE290E024E0FC012083D7
:1006000080E090E0A6E1B3E489879A87AB87BC8756
:100610002BEA3AEA4AEA50E469857A858B859C851B
:100620000E947C0EDC01CB018D879E87AF87B88B43
:1006300020E030E040E850E469857A858B859C8530
:100640000E947C0EDC01CB01898B9A8BAB8BBC8B1F
:1006500020E030E040E85FE36D857E858F859889F6
:100660000E945C0D88231CF481E08D8BB2C020E0D9
:100670003FEF4FE757E469897A898B899C890E940B
:10068000770E18160CF07BC020E030E04AE754E407
:1006900069857A858B859C850E94610DDC01CB0183
:1006A0008E8B9F8BA88FB98F20E030E04AE755E40E
:1006B0006E897F89888D998D0E947C0EDC01CB012B
:1006C0008A8F9B8FAC8FBD8F20E030E040E85FE3E6
:1006D0006A8D7B8D8C8D9D8D0E945C0D88232CF402
:1006E00081E090E09F8F8E8F3FC020E03FEF4FE78B
:1006F00057E46A8D7B8D8C8D9D8D0E94770E181628
:100700004CF520E030E040E251E46E897F89888D2D
:10071000998D0E947C0EDC01CB01BC01CD010E94B1
:10072000D30DDC01CB019F8F8E8F0FC080E991E04C
:1007300099A388A388A199A10197F1F799A388A308
:100740008E8D9F8D01979F8F8E8F8E8D9F8D892B84
:1007500069F73FC06A8D7B8D8C8D9D8D0E94D30D76
:10076000DC01CB019F8F8E8F8E8D9F8D9BA38AA3E3
:100770008AA19BA10197F1F79BA38AA32AC020E03D
:1007800030E04FE753E46D857E858F8598890E9420
:10079000770E1816ACF469897A898B899C890E9436
:1007A000D30DDC01CB019DA38CA38CA19DA19FA3A4
:1007B0008EA38EA19FA10197F1F79FA38EA30FC0D7
:1007C0006D857E858F8598890E94D30DDC01CB01D4
:1007D0008D8B8D8988A788A58A95F1F788A780E0F9
:1007E00090E49C838B8310928101109280011A8285
:1007F0001982F9C28BE290E0FC0110828AE290E05B
:1008000024E0FC01208380E090E0A8E4B3E489A721
:100810009AA7ABA7BCA720E030E04AE755E469A55A
:100820007AA58BA59CA50E947C0EDC01CB018DA72F
:100830009EA7AFA7B8AB20E030E040E85FE36DA52E
:100840007EA58FA598A90E945C0D88232CF481E0D9
:1008500090E09AAB89AB3FC020E03FEF4FE757E411
:100860006DA57EA58FA598A90E94770E18164CF548
:1008700020E030E040E251E469A57AA58BA59CA573
:100880000E947C0EDC01CB01BC01CD010E94D30D86
:10089000DC01CB019AAB89AB0FC080E991E09CAB46
:1008A0008BAB8BA99CA90197F1F79CAB8BAB89A96A
:1008B0009AA901979AAB89AB89A99AA9892B69F75B
:1008C00014C06DA57EA58FA598A90E94D30DDC014B
:1008D000CB019AAB89AB89A99AA99EAB8DAB8DA9A7
:1008E0009EA90197F1F79EAB8DAB8BE290E024E0DF
:1008F000FC01208380E090E0A8E4B3E48FAB98AFE4
:10090000A9AFBAAF20E030E04AE755E46FA978AD6F
:1009100089AD9AAD0E947C0EDC01CB018BAF9CAF00
:10092000ADAFBEAF20E030E040E85FE36BAD7CAD43
:100930008DAD9EAD0E945C0D882344F421E030E033
:10094000CE01CF96FC01318320835FC020E03FEFD2
:100950004FE757E46BAD7CAD8DAD9EAD0E94770E39
:1009600018160CF044C020E030E040E251E46FA9DA
:1009700078AD89AD9AAD0E947C0EDC01CB01BC0143
:10098000CD010E94D30DDC01CB019E01215C3F4FC4
:10099000F9019183808323C0CE018F5B9F4F20E9B3
:1009A00031E0FC0131832083CE018F5B9F4FFC013E
:1009B000808191810197F1F79E012F5B3F4FF901F3
:1009C00091838083CE01CF96FC01808191819C012F
:1009D00021503109CE01CF96FC0131832083CE0115
:1009E000CF96FC0180819181892BB1F628C06BAD37
:1009F0007CAD8DAD9EAD0E94D30DDC01CB019E017F
:100A0000215C3F4FF90191838083CE018D5B9F4F25
:100A10009E01215C3F4FF90120813181FC0131832E
:100A20002083CE018D5B9F4FFC01808191810197D6
:100A3000F1F79E012D5B3F4FF901918380838AE29C
:100A400090E0FC0110829E012B5B3F4F80E090E024
:100A5000A0E4B0E4F90180839183A283B3838E0183
:100A6000075B1F4FCE018B5B9F4F2BEA3AEA4AEAA6
:100A700050E4FC0160817181828193810E947C0E2F
:100A8000DC01CB01F80180839183A283B3838E01C3
:100A9000035B1F4FCE018B5B9F4F20E030E040E8AF
:100AA00050E4FC0160817181828193810E947C0EFF
:100AB000DC01CB01F80180839183A283B383CE0153
:100AC000875B9F4F20E030E040E85FE3FC016081FE
:100AD0007181828193810E945C0D88233CF4CE0158
:100AE0008F5A9F4F21E0FC01208344C1CE01835BDC
:100AF0009F4F20E03FEF4FE757E4FC016081718199
:100B0000828193810E94770E18160CF0E5C0CE0109
:100B10008B5B9F4F20E030E04AE754E4FC016081AA
:100B20007181828193810E94610DDC01CB019E0164
:100B30002E5A3F4FF90180839183A283B3838E01A4
:100B40000A5A1F4FCE018E5A9F4F20E030E04AE7ED
:100B500055E4FC0160817181828193810E947C0E49
:100B6000DC01CB01F80180839183A283B383CE01A2
:100B70008A5A9F4F20E030E040E85FE3FC0160814B
:100B80007181828193810E945C0D88234CF4CE0197
:100B9000865A9F4F21E030E0FC013183208377C0EB
:100BA000CE018A5A9F4F20E03FEF4FE757E4FC0108
:100BB00060817181828193810E94770E18160CF0FA
:100BC00054C0CE018E5A9F4F20E030E040E251E405
:100BD000FC0160817181828193810E947C0EDC0125
:100BE000CB018E01065A1F4FBC01CD010E94D30DCF
:100BF000DC01CB01F8019183808324C0CE01845AAB
:100C00009F4F20E931E0FC0131832083CE01845ADB
:100C10009F4FFC01808191810197F1F79E01245A39
:100C20003F4FF90191838083CE01865A9F4F9E01E9
:100C3000265A3F4FF9012081318121503109FC01B1
:100C400031832083CE01865A9F4FFC0180819181A0
:100C5000892BA1F6CE018F5A9F4F9E012B593F4FF2
:100C6000F9012081FC01208385C08E01065A1F4FA7
:100C7000CE018A5A9F4FFC016081718182819381EC
:100C80000E94D30DDC01CB01F80191838083CE015A
:100C9000825A9F4F9E01265A3F4FF9012081318190
:100CA000FC0131832083CE01825A9F4FFC01808159
:100CB00091810197F1F79E01225A3F4FF9019183EB
:100CC0008083CE018F5A9F4F9E012B593F4FF901D0
:100CD0002081FC0120834EC0CE01875B9F4F20E026
:100CE00030E04FE753E4FC016081718182819381A0
:100CF0000E94770E18166CF58E01005A1F4FCE0118
:100D0000835B9F4FFC0160817181828193810E948E
:100D1000D30DDC01CB01F80191838083CE018E5984
:100D20009F4F9E01205A3F4FF90120813181FC01E4
:100D300031832083CE018E599F4FFC0180819181A8
:100D40000197F1F79E012E593F4FF901918380835E
:100D500028C08E010F5A1F4FCE01875B9F4FFC01A9
:100D600060817181828193810E94D30DDC01CB016E
:100D7000F8018083CE018C599F4F9E012F5A3F4F1F
:100D8000F9012081FC012083CE018C599F4FFC0189
:100D90008081282F2A95F1F7CE018C599F4FFC01B5
:100DA000208389E290E0FC018081882F90E08270AE
:100DB0009927892B69F080918001909181019C0194
:100DC0008B819C81822B932B909381018093800156
:100DD0008B819C81969587959C838B8389819A8151
:100DE00001969A83898389819A810F970CF402CDA9
:100DF00080E090E0A0E0B1E08D839E83AF83B88770
:100E00001092820110928301109284011092850148
:100E10001A8219827BC38BE290E0FC0110828AE285
:100E200090E024E0FC0120839E012A593F4F80E09E
:100E300090E0A8E4B3E4F90180839183A283B383B3
:100E40008E0106591F4FCE018A599F4F20E030E096
:100E50004AE755E4FC0160817181828193810E949F
:100E60007C0EDC01CB01F80180839183A283B383E4
:100E7000CE0186599F4F20E030E040E85FE3FC015F
:100E800060817181828193810E945C0D88234CF482
:100E9000CE0182599F4F21E030E0FC013183208355
:100EA0006DC0CE0186599F4F20E03FEF4FE757E4DA
:100EB000FC0160817181828193810E94770E1816F6
:100EC0000CF04AC0CE018A599F4F20E030E040E24A
:100ED00051E4FC0160817181828193810E947C0ECA
:100EE000DC01CB018E0102591F4FBC01CD010E94D4
:100EF000D30DDC01CB01F8019183808324C0CE01A6
:100F000080599F4F20E931E0FC0131832083CE01DD
:100F100080599F4FFC01808191810197F1F79E01DB
:100F200020593F4FF90191838083CE0182599F4F11
:100F30009E0122593F4FF901208131812150310911
:100F4000FC0131832083CE0182599F4FFC018081B7
:100F50009181892BA1F62CC08E0102591F4FCE0121
:100F600086599F4FFC0160817181828193810E942B
:100F7000D30DDC01CB01F80191838083CE018E5823
:100F80009F4F9E0122593F4FF90120813181FC0181
:100F900031832083CE018E589F4FFC018081918147
:100FA0000197F1F79E012E583F4FF90191838083FD
:100FB0008BE290E024E0FC0120839E012C583F4FFF
:100FC00080E090E0A8E4B3E4F90180839183A283F8
:100FD000B3838E0108581F4FCE018C589F4F20E0DD
:100FE00030E04AE755E4FC016081718182819381A0
:100FF0000E947C0EDC01CB01F80180839183A283E7
:10100000B383CE0188589F4F20E030E040E85FE393
:10101000FC0160817181828193810E945C0D882333
:101020004CF4CE0184589F4F21E030E0FC01318325
:1010300020836DC0CE0188589F4F20E03FEF4FE7DF
:1010400057E4FC0160817181828193810E94770E57
:1010500018160CF04AC0CE018C589F4F20E030E0AB
:1010600040E251E4FC0160817181828193810E94A0
:101070007C0EDC01CB018E0104581F4FBC01CD0159
:101080000E94D30DDC01CB01F8019183808324C041
:10109000CE0182589F4F20E931E0FC01318320834B
:1010A000CE0182589F4FFC01808191810197F1F719
:1010B0009E0122583F4FF90191838083CE018458CD
:1010C0009F4F9E0124583F4FF901208131812150CB
:1010D0003109FC0131832083CE0184589F4FFC01EC
:1010E00080819181892BA1F62CC08E0104581F4F5D
:1010F000CE0188589F4FFC0160817181828193816C
:101100000E94D30DDC01CB01F80191838083CE01D5
:1011100080589F4F9E0124583F4FF9012081318113
:10112000FC0131832083CE0180589F4FFC018081D8
:1011300091810197F1F79E0120583F4FF90191836A
:1011400080838AE290E0FC0110829E012E573F4F7F
:1011500080E090E0A0E4B0E4F90180839183A28371
:10116000B3838E010A571F4FCE018E579F4F2BEA34
:101170003AEA4AEA50E4FC016081718182819381FC
:101180000E947C0EDC01CB01F80180839183A28355
:10119000B3838E0106571F4FCE018E579F4F20E01D
:1011A00030E040E850E4FC016081718182819381EC
:1011B0000E947C0EDC01CB01F80180839183A28325
:1011C000B383CE018A579F4F20E030E040E85FE3D1
:1011D000FC0160817181828193810E945C0D882372
:1011E0003CF4CE0182579F4F21E0FC01208344C193
:1011F000CE0186579F4F20E03FEF4FE757E4FC01B9
:1012000060817181828193810E94770E18160CF0A3
:10121000E5C0CE018E579F4F20E030E04AE754E40E
:10122000FC0160817181828193810E94610DDC01EA
:10123000CB019E0121573F4FF90180839183A28307
:10124000B3838E010D561F4FCE0181579F4F20E073
:1012500030E04AE755E4FC0160817181828193812D
:101260000E947C0EDC01CB01F80180839183A28374
:10127000B383CE018D569F4F20E030E040E85FE31E
:10128000FC0160817181828193810E945C0D8823C1
:101290004CF4CE0189569F4F21E030E0FC013183B0
:1012A000208377C0CE018D569F4F20E03FEF4FE760
:1012B00057E4FC0160817181828193810E94770EE5
:1012C00018160CF054C0CE0181579F4F20E030E03B
:1012D00040E251E4FC0160817181828193810E942E
:1012E0007C0EDC01CB018E0109561F4FBC01CD01E4
:1012F0000E94D30DDC01CB01F8019183808324C0CF
:10130000CE0187569F4F20E931E0FC0131832083D5
:10131000CE0187569F4FFC01808191810197F1F7A3
:101320009E0127563F4FF90191838083CE01895654
:101330009F4F9E0129563F4FF90120813181215055
:101340003109FC0131832083CE0189569F4FFC0176
:1013500080819181892BA1F6CE0182579F4F9E01FA
:101360002E553F4FF9012081FC01208385C08E015D
:1013700009561F4FCE018D569F4FFC016081718130
:10138000828193810E94D30DDC01CB01F80191830E
:101390008083CE0185569F4F9E0129563F4FF9010C
:1013A00020813181FC0131832083CE0185569F4FFE
:1013B000FC01808191810197F1F79E0125563F4FF5
:1013C000F90191838083CE0182579F4F9E012E5554
:1013D0003F4FF9012081FC0120834EC0CE018A5786
:1013E0009F4F20E030E04FE753E4FC0160817181C2
:1013F000828193810E94770E18166CF58E01035638
:101400001F4FCE0186579F4FFC0160817181828101
:1014100093810E94D30DDC01CB01F801918380837D
:10142000CE0181569F4F9E0123563F4FF9012081E7
:101430003181FC0131832083CE0181569F4FFC0115
:10144000808191810197F1F79E0121563F4FF9016B
:101450009183808328C08E0102571F4FCE018A5787
:101460009F4FFC0160817181828193810E94D30D25
:10147000DC01CB01F8018083CE018F559F4F9E0187
:1014800022573F4FF9012081FC012083CE018F5567
:101490009F4FFC018081282F2A95F1F7CE018F55AF
:1014A0009F4FFC01208389E290E0FC018081882F1E
:1014B00090E082709927892BC1F0209182013091B0
:1014C000830140918401509185018D819E81AF817E
:1014D000B885822B932BA42BB52B809382019093FC
:1014E0008301A0938401B09385018D819E81AF819A
:1014F000B885B695A795979587958D839E83AF837D
:10150000B88789819A8101969A83898389819A8192
:1015100049970CF480CC8BE290E0FC0110828AE2C7
:1015200090E024E0FC0120839E012D553F4F80E098
:1015300090E0A8E4B3E4F90180839183A283B383AC
:101540008E0109551F4FCE018D559F4F20E030E091
:101550004AE755E4FC0160817181828193810E9498
:101560007C0EDC01CB01F80180839183A283B383DD
:10157000CE0189559F4F20E030E040E85FE3FC0159
:1015800060817181828193810E945C0D88234CF47B
:10159000CE0185559F4F21E030E0FC01318320834F
:1015A0006DC0CE0189559F4F20E03FEF4FE757E4D4
:1015B000FC0160817181828193810E94770E1816EF
:1015C0000CF04AC0CE018D559F4F20E030E040E244
:1015D00051E4FC0160817181828193810E947C0EC3
:1015E000DC01CB018E0105551F4FBC01CD010E94CE
:1015F000D30DDC01CB01F8019183808324C0CE019F
:1016000083559F4F20E931E0FC0131832083CE01D7
:1016100083559F4FFC01808191810197F1F79E01D5
:1016200023553F4FF90191838083CE0185559F4F0C
:101630009E0125553F4FF90120813181215031090B
:10164000FC0131832083CE0185559F4FFC018081B1
:101650009181892BA1F62CC08E0105551F4FCE011B
:1016600089559F4FFC0160817181828193810E9425
:10167000D30DDC01CB01F80191838083CE0181552C
:101680009F4F9E0125553F4FF90120813181FC017B
:1016900031832083CE0181559F4FFC018081918150
:1016A0000197F1F79E0121553F4FF9019183808306
:1016B0008AE290E0FC01108280918001909181018A
:1016C0009F7390938101809380018091820190911A
:1016D0008301A0918401B091850180769927AA2782
:1016E000BB27892B8A2B8B2B89F4809180019091C9
:1016F000810188279072892B49F080918001909117
:1017000081019054909381018093800180918201A6
:1017100090918301A0918401B09185012091800175
:10172000309181014B2F4F934A2F4F93492F4F9365
:101730008F93832F8F93822F8F9384E291E0892F51
:101740008F9384E291E08F930E94E90E8DB79EB74C
:1017500008960FB6F894DEBF0FBECDBF0000C0558F
:10176000DF4F0FB6F894DEBF0FBECDBFDF91CF9134
:101770001F910F910895CF93DF93CDB7DEB76E978A
:101780000FB6F894DEBF0FBECDBF81E090E09A8324
:1017900089830E94FC0C80E091E090938901809302
:1017A00088018EE091E0909387018093860184E226
:1017B00090E020E1FC01208389819A81892B09F442
:1017C0007EC08DE391E00E94FF0E80E090E0AAE7EA
:1017D000B4E48B839C83AD83BE8320E030E04AE792
:1017E00055E46B817C818D819E810E947C0EDC01A1
:1017F000CB018F839887A987BA8720E030E040E843
:101800005FE36F81788589859A850E945C0D8823C6
:101810002CF481E090E09C878B873FC020E03FEF75
:101820004FE757E46F81788589859A850E94770E06
:1018300018164CF520E030E040E251E46B817C81E9
:101840008D819E810E947C0EDC01CB01BC01CD010B
:101850000E94D30DDC01CB019C878B870FC080E9F0
:1018600091E09E878D878D859E850197F1F79E87F4
:101870008D878B859C8501979C878B878B859C8525
:10188000892B69F714C06F81788589859A850E94B4
:10189000D30DDC01CB019C878B878B859C85988B36
:1018A0008F878F8598890197F1F7988B8F8760E1F3
:1018B00077E180EC90E00E9453001A82198283E263
:1018C00090E0FC018081882F90E080729927892B1D
:1018D00009F491C081E591E00E94FF0E84E290E05E
:1018E00020E3FC01208385E290E020E1FC012083DD
:1018F0008EE591E00E94FF0E80E090E0AAEFB4E454
:10190000898B9A8BAB8BBC8B20E030E04AE755E4A7
:1019100069897A898B899C890E947C0EDC01CB01C4
:101920008D8B9E8BAF8BB88F20E030E040E85FE37B
:101930006D897E898F89988D0E945C0D88232CF497
:1019400081E090E09A8F898F3FC020E03FEF4FE722
:1019500057E46D897E898F89988D0E94770E1816BD
:101960004CF520E030E040E251E469897A898B89C6
:101970009C890E947C0EDC01CB01BC01CD010E9440
:10198000D30DDC01CB019A8F898F0FC080E991E0E4
:101990009C8F8B8F8B8D9C8D0197F1F79C8F8B8FFC
:1019A000898D9A8D01979A8F898F898D9A8D892B30
:1019B00069F714C06D897E898F89988D0E94D30D37
:1019C000DC01CB019A8F898F898D9A8D9E8F8D8FA7
:1019D0008D8D9E8D0197F1F79E8F8D8F81E791E020
:1019E0000E94FF0E85E290E0FC01108284E290E00C
:1019F00020E1FC012083E0CECF93DF93CDB7DEB7AB
:101A000085EC90E0FC01108284EC90E027E6FC017C
:101A1000208380EC90E020EC30E0F90120812D7FE4
:101A2000FC01208382EC90E026E0FC01208381EC25
:101A300090E028E1FC012083DF91CF910895CF93BE
:101A4000DF9300D01F92CDB7DEB789837B836A8393
:101A500089818A3031F48A819B81BC018DE00E94AA
:101A60001F0D80EC90E0FC018081882F90E0807257
:101A70009927892BB1F386EC90E02981FC01208322
:101A80000F900F900F90DF91CF910895CF93DF9338
:101A900000D0CDB7DEB79A83898380EC90E0FC015B
:101AA00080818823D4F786EC90E0FC0180810F9040
:101AB0000F90DF91CF9108950E94020E08F481E00B
:101AC00008950E94750D0C943D0E0E94360E58F03C
:101AD0000E942F0E40F029F45F3F29F00C94260E4F
:101AE00051110C94710E0C942C0E0E944E0E68F342
:101AF0009923B1F3552391F3951B550BBB27AA27C7
:101B000062177307840738F09F5F5F4F220F331F00
:101B1000441FAA1FA9F335D00E2E3AF0E0E832D0C8
:101B200091505040E695001CCAF72BD0FE2F29D0CB
:101B3000660F771F881FBB1F261737074807AB079D
:101B4000B0E809F0BB0B802DBF01FF2793585F4F12
:101B50003AF09E3F510578F00C94260E0C94710ECD
:101B60005F3FE4F3983ED4F3869577956795B795F4
:101B7000F7959F5FC9F7880F911D9695879597F9FF
:101B80000895E1E0660F771F881FBB1F6217730778
:101B90008407BA0720F0621B730B840BBA0BEE1F8D
:101BA00088F7E09508950E94560E88F09F5798F0A8
:101BB000B92F9927B751B0F0E1F0660F771F881F52
:101BC000991F1AF0BA95C9F714C0B13091F00E946C
:101BD000700EB1E008950C94700E672F782F88274F
:101BE000B85F39F0B93FCCF3869577956795B39593
:101BF000D9F73EF490958095709561957F4F8F4F02
:101C00009F4F0895990F0008550FAA0BE0E8FEEFCB
:101C100016161706E807F907C0F012161306E407B0
:101C2000F50798F0621B730B840B950B39F40A26A9
:101C300061F0232B242B252B21F408950A2609F487
:101C4000A140A6958FEF811D811D089597F99F678B
:101C500080E870E060E008959FEF80EC0895002434
:101C60000A941616170618060906089500240A9401
:101C700012161306140605060895092E0394000C87
:101C800011F4882352F0BB0F40F4BF2B11F460FF16
:101C900004C06F5F7F4F8F4F9F4F089557FD90583F
:101CA000440F551F59F05F3F71F04795880F97FB20
:101CB000991F61F09F3F79F08795089512161306DA
:101CC0001406551FF2CF4695F1DF08C01616170609
:101CD0001806991FF1CF869571056105089408953E
:101CE000E894BB2766277727CB0197F908950E94D0
:101CF000020E08F48FEF08950E948F0E0C943D0E93
:101D00000E942F0E38F00E94360E20F0952311F01D
:101D10000C94260E0C942C0E11240C94710E0E941F
:101D20004E0E70F3959FC1F3950F50E0551F629FC3
:101D3000F001729FBB27F00DB11D639FAA27F00D24
:101D4000B11DAA1F649F6627B00DA11D661F829F4B
:101D50002227B00DA11D621F739FB00DA11D621F30
:101D6000839FA00D611D221F749F3327A00D611D4D
:101D7000231F849F600D211D822F762F6A2F11242F
:101D80009F5750409AF0F1F088234AF0EE0FFF1F62
:101D9000BB1F661F771F881F91505040A9F79E3FB9
:101DA000510580F00C94260E0C94710E5F3FE4F305
:101DB000983ED4F3869577956795B795F795E7950F
:101DC0009F5FC1F7FE2B880F911D9695879597F918
:101DD0000895A0E0B0E0EFEEFEE00C94BD11AE017E
:101DE0004B5F5F4FFA0161917191AF018091880162
:101DF000909189010E942F0FE2E00C94D9110F936A
:101E00001F93CF93DF93E0918801F09189012381A3
:101E100021FF1BC08C01D0E0C0E0F80181918F014F
:101E20006091880170918901DB011896ED91FC9118
:101E30001997882331F00995892B79F3DFEFCFEFDC
:101E4000ECCF8AE00995892B19F08FEF9FEF02C044
:101E50008D2F9C2FDF91CF911F910F910895ACE0B2
:101E6000B0E0E5E3FFE00C94AD117C016B018A0169
:101E7000FC0117821682838181FFBDC1CE010196CC
:101E80004C01F7019381F60193FD859193FF8191B8
:101E90006F01882309F4ABC1853239F493FD859134
:101EA00093FF81916F01853229F4B70190E00E9480
:101EB0001711E7CF512C312C20E02032A0F48B32C7
:101EC00069F030F4803259F0833269F420612CC01B
:101ED0008D3239F0803339F4216026C022602460CD
:101EE00023C0286021C027FD27C030ED380F3A30CD
:101EF00078F426FF06C0FAE05F9E300D1124532EC1
:101F000013C08AE0389E300D1124332E20620CC09D
:101F10008E3221F426FD6BC1206406C08C3611F48C
:101F2000206802C0883641F4F60193FD859193FF45
:101F300081916F018111C1CF982F9F7D955493306E
:101F400028F40C5F1F4FFFE3F9830DC0833631F097
:101F5000833771F0833509F05BC022C0F8018081BE
:101F600089830E5F1F4F44244394512C540115C0A4
:101F70003801F2E06F0E711CF801A080B18026FFDD
:101F800003C0652D70E002C06FEF7FEFC5012C87A5
:101F90000E940C112C0183012C852F77222E17C053
:101FA0003801F2E06F0E711CF801A080B18026FFAD
:101FB00003C0652D70E002C06FEF7FEFC5012C8775
:101FC0000E9401112C012C852068222E830123FC04
:101FD0001BC0832D90E048165906B0F4B70180E28B
:101FE00090E00E9417113A94F4CFF50127FC8591F7
:101FF00027FE81915F01B70190E00E941711311017
:102000003A94F1E04F1A51084114510471F7E5C0B8
:10201000843611F0893639F5F80127FF07C0608151
:102020007181828193810C5F1F4F08C06081718133
:10203000072E000C880B990B0E5F1F4F2F76722E08
:1020400097FF09C090958095709561957F4F8F4F50
:102050009F4F2068722E2AE030E0A4010E944F11A9
:10206000A82EA81844C0853729F42F7EB22E2AE066
:1020700030E025C0F22FF97FBF2E8F36C1F018F463
:10208000883579F0B4C0803719F0883721F0AFC0B7
:102090002F2F2061B22EB4FE0DC08B2D8460B82E80
:1020A00009C024FF0AC09F2F9660B92E06C028E001
:1020B00030E005C020E130E002C020E132E0F8016C
:1020C000B7FE07C060817181828193810C5F1F4FD1
:1020D00006C06081718180E090E00E5F1F4FA40117
:1020E0000E944F11A82EA818FB2DFF777F2E76FE99
:1020F0000BC0372D3E7FA51450F474FE0AC072FC4D
:1021000008C0372D3E7E05C0BA2C372D03C0BA2C2F
:1021100001C0B52C34FF0DC0FE01EA0DF11D808118
:10212000803311F4397E09C032FF06C0B394B394F2
:1021300004C0832F867809F0B39433FD13C030FFB9
:1021400006C05A2CB31418F4530C5B18B32CB314F8
:1021500068F4B70180E290E03C870E941711B394C5
:102160003C85F5CFB31410F43B1801C0312C34FF7B
:1021700012C0B70180E390E03C870E9417113C85B4
:1021800032FF17C031FD03C088E790E002C088E548
:1021900090E0B7010CC0832F867859F031FF02C060
:1021A0008BE201C080E237FD8DE2B70190E00E9432
:1021B0001711A51438F4B70180E390E00E941711BD
:1021C0005A94F7CFAA94F401EA0DF11D8081B7016A
:1021D00090E00E941711A110F5CF332009F451CEE1
:1021E000B70180E290E00E9417113A94F6CFF70110
:1021F0008681978102C08FEF9FEF2C96E2E10C94CD
:10220000C911FC010590615070400110D8F780950C
:1022100090958E0F9F1F0895FC01615070400190B2
:102220000110D8F7809590958E0F9F1F08950F93FA
:102230001F93CF93DF93FB01238121FD03C08FEF19
:102240009FEF28C022FF16C0468157812481358127
:102250004217530744F4A081B1819D012F5F3F4F86
:10226000318320838C93268137812F5F3F4F3783C3
:10227000268310C0EB01092F182F0084F185E02D73
:102280000995892BE1F68E819F8101969F838E832C
:10229000812F902FDF91CF911F910F910895FA0117
:1022A000AA27283051F1203181F1E8946F936E7F95
:1022B0006E5F7F4F8F4F9F4FAF4FB1E03ED0B4E086
:1022C0003CD0670F781F891F9A1FA11D680F791FC7
:1022D0008A1F911DA11D6A0F711D811D911DA11DD8
:1022E00020D009F468943F912AE0269F11243019E8
:1022F000305D3193DEF6CF010895462F4770405D83
:102300004193B3E00FD0C9F7F6CF462F4F70405D31
:102310004A3318F0495D31FD4052419302D0A9F78C
:10232000EACFB4E0A6959795879577956795BA9586
:10233000C9F700976105710508959B01AC010A2E4C
:1023400006945795479537952795BA95C9F7620F23
:10235000731F841F951FA01D08952F923F924F92C7
:102360005F926F927F928F929F92AF92BF92CF9225
:10237000DF92EF92FF920F931F93CF93DF93CDB72E
:10238000DEB7CA1BDB0B0FB6F894DEBF0FBECDBFA6
:1023900009942A88398848885F846E847D848C8477
:1023A0009B84AA84B984C884DF80EE80FD800C8180
:1023B0001B81AA81B981CE0FD11D0FB6F894DEBF63
:0C23C0000FBECDBFED010895F894FFCFD3
:1023CC0000000002000000001F0D000000000000D3
:1023DC000001000000000000460D000077726974D7
:1023EC006564210050495256616C3A20256409738A
:1023FC007461746366673A2025756C0A00577269BC
:10240C0074696E6720746F20726567697374657286
:10241C00004D6F76656D656E742121210A00576140
:10242C006974696E6720666F722032205365630A87
:10243C000057616974696E6720646F6E650A0000ED
:00000001FF
